:100000001BEF02F00000000000EF00F00000000015
:0A0010000000000000000000F3D71C
:0A001C00210E0D6E0D2EFED712000E
:100026000F0E0C6E470E0D6E0D2EFED70C2EFCD746
:06003600000000001200B2
:06003C00000000001200AC
:10004200819E800E3514016E0150000A02E0818CFF
:1000520001D0819C818E819E400E3514016E01502B
:10006200000A02E0818C01D0819C818E819E200E4B
:100072003514016E0150000A02E0818C01D0819C8E
:10008200818E819E100E3514016E0150000A02E02D
:10009200818C01D0819C818E819E080E3514016E67
:1000A2000150000A02E0818C01D0819C818E819EE8
:1000B200040E3514016E0150000A02E0818C01D059
:1000C200819C818E819E020E3514016E0150000AC0
:1000D20002E0818C01D0819C818E819E010E3514BB
:1000E200016E0150000A02E0818C01D0819C818E58
:0200F2001200FA
:1000F40035BE02D0839E01D0838E35BC02D0839C52
:1001040001D0838C35BA02D0839A01D0838A35B862
:1001140002D0839801D083882AB002D0848401D08D
:100124008494848289DF849235B602D0839E01D080
:10013400838E35B402D0839C01D0838C35B202D037
:10014400839A01D0838A35B002D0839801D0838802
:100154002AB002D0848401D0849484826DDF849296
:0C0164002AA002D05EDF01D057DF12009D
:0C0170002A9034C035F0BEDF2A80120057
:0E017C00819E818C818E34C035F05DDF1200D3
:0E018A00819E819C818E2FC035F056DF1200C1
:10019800969296949598959A959C959E8492849417
:1001A800839E839C839A83983ADF39DF38DF838A7A
:1001B800838884823FDF849232DF84823BDF8492AB
:1001C8002EDF848237DF84922ADF8398848232DFAD
:1001D800849225DF84822EDF8492839A838E8482A0
:1001E80029DF84921CDF839E8388848223DF8492A4
:1001F800839884821FDF849212DF84821BDF8492BB
:100208008388848217DF84920ADF8398848212DFCE
:100218008492838E838C838A838884820BDF849282
:06022800FEDE2A80120038
:10022E000900F5CFE6FF0006FBE10106F9E1120039
:10023E002FC027F030C028F031C029F02450000A1A
:10024E0015E1F00E2714256E28C000F00032009E36
:10025E000032009E0032009E0032009E0050251299
:10026E00F00E2914266E010E246E22D0246A25C0AB
:10027E0034F07DDF27C000F00032009E0032009E79
:10028E000032009E0032009E00502610346E6FDF4A
:10029E00F00E2814346E29C000F00032009E003299
:1002AE00009E0032009E0032009E005034125FDF2E
:0202BE0012002C
:1002C0000FD0800E2F6E19D0C00E2F6E16D0940E48
:1002D0002F6E13D0D40E2F6E10D0800E2F6E0DD037
:1002E0002F50010AEEE02F50020AEEE02F50030AD1
:1002F000EEE02F50040AEEE0F0D73004006E2F50ED
:10030000002600C02FF000C035F0F4DE2A90336ADA
:1003100033503124E96E000E3220EA6EEE520BE0CB
:1003200033503124E96E000E3220EA6EEECF34F005
:0A0330001FDF332AEDD72A801200E8
:10033A0081CF03F083CF04F093CF05F095CF06F079
:10034A00FF0E816EFF0E956E936AFF0E836E026A30
:10035A0081901A0E0C6EF80E0D6E0D2EFED70C2E15
:10036A00FCD7000083CF01F001B003D03C0E026E2F
:10037A000ED001B203D0370E026E09D001B403D0F9
:10038A00340E026E04D001B602D0310E026E8180A4
:10039A0081921A0E0C6EF80E0D6E0D2EFED70C2ED3
:1003AA00FCD7000083CF01F001B003D0300E026EFB
:1003BA000ED001B203D0380E026E09D001B403D0B8
:1003CA00350E026E04D001B602D0320E026E818260
:1003DA0081941A0E0C6EF80E0D6E0D2EFED70C2E91
:1003EA00FCD7000083CF01F001B003D03E0E026EAD
:1003FA000ED001B203D0390E026E09D001B403D077
:10040A00360E026E04D001B602D0330E026E81841B
:10041A000250000A9DE003C081FF04C083FF05C0AB
:0C042A0093FF06C095FF02C000F0120016
:10043600310E156E360E166E390E176E350E186E97
:10044600196A310E1A6E360E1B6E390E1C6E350E7B
:100456001D6E1E6A310E1F6E360E206E390E216E0F
:10046600350E226E236AEA0E2D6E000E2E6E91DE7A
:100476000C0E356E3CDE816A936A819A819C818E70
:1004860081881A0E0C6EF80E0D6E0D2EFED70C2EF0
:10049600FCD7000081981A0E0C6EF80E0D6E0D2E0C
:1004A600FED70C2EFCD700008188818E818C818E30
:1004B6001A0E0C6EF80E0D6E0D2EFED70C2EFCD7F6
:1004C6000000010E2F6E5EDE110E2F6E5BDE030E38
:1004D6002F6E58DE1A0E0C6EF80E0D6E0D2EFED710
:1004E6000C2EFCD70000290E2F6E4CDE130E2F6E3D
:1004F60049DE200E2F6E46DEBA0E2F6E43DE3A0E12
:100506002F6E40DE030E346E36DE250E2F6E3ADE7B
:100516007F0E346E30DE2A0E2F6E34DE330E346ECE
:100526002ADE510E346E27DE2B0E2F6E2BDE2E0E9C
:10053600346E21DE560E346E1EDE2C0E2F6E22DE3B
:10054600F9DE00C02DF0000E2E6E000E2E1802E110
:10055600310E2D1849E1010E2F6E010E306E1F0E61
:10056600316E000E326EA9DE2B6A2C6A040E2C5CEC
:1005760002E1B00E2B5C09E2FF0E2F6EFF0E306E0D
:10058600316A5ADE2B4A2C2AF1D70B0E0B6E260E39
:100596000C6E5D0E0D6E0D2EFED70C2EFCD70B2E9F
:1005A600FAD7000000002B6A2C6A040E2C5C02E1CC
:1005B600B00E2B5C0AE2FF0E2F6EFF0E306EFF0EA2
:1005C600316E3ADE2B4A2C2AF0D70B0E0B6E260E16
:1005D6000C6E5D0E0D6E0D2EFED70C2EFCD70B2E5F
:1005E600FAD700000000C0D7000E2E1802E1300E28
:1005F6002D1843E0000E2E1802E1310E2D183DE0B5
:10060600000E2E1802E1320E2D1837E0000E2E18BD
:1006160002E1330E2D1831E0000E2E1802E1340EE1
:100626002D182BE0000E2E1802E1350E2D1825E0B0
:10063600000E2E1802E1360E2D181FE0000E2E18A1
:1006460002E1370E2D1819E0000E2E1802E1380EC1
:100656002D1813E0000E2E1802E1390E2D180DE0AC
:10066600000E2E1802E1230E2D1807E0000E2E189C
:1006760002E12A0E2D1801E089D0010E2F6E010E1F
:10068600306E1A0E316E000E326E17DE81881A0E2B
:100696000C6EF80E0D6E0D2EFED70C2EFCD700003C
:1006A60081981A0E0C6EF80E0D6E0D2EFED70C2EBE
:1006B600FCD700008188818E818C818E1A0E0C6E8B
:1006C600F80E0D6E0D2EFED70C2EFCD70000010E77
:1006D6002F6E58DD110E2F6E55DD030E2F6E52DD77
:1006E6001A0E0C6EF80E0D6E0D2EFED70C2EFCD7C4
:1006F6000000290E2F6E46DD130E2F6E43DD200EF1
:100706002F6E40DDBA0E2F6E3DDD3A0E2F6E3ADDAE
:10071600030E346E30DD250E2F6E34DD7F0E346E03
:100726002ADD2A0E2F6E2EDD340E346E24DD830E66
:10073600346E21DD2B0E2F6E25DD346A1CDD4F0E47
:10074600346E19DD2C0E2F6E1DDD2B6A2C6A190EE8
:100756002C5C02E1000E2B5C0AE2640E2F6E640E26
:10076600306E640E316E68DD2B4A2C2AF0D70B0EE4
:100776000B6E260E0C6E5D0E0D6E0D2EFED70C2E1C
:10078600FCD70B2EFAD700000000DFD7EA0E2D6E3D
:08079600000E2E6ED5D6FFD730
:020000040030CA
:0D000100220F0EFF0181FF0FC00FE00F4026
:00000001FF
